:0300000002442A8D
:0C442A00787FE4F6D8FD75812202447111
:10364B0041046B0141046F0041046E0041046900A9
:10365B004104670041046A0041046C0041046800A6
:04366B0041046D00A9
:10488F000D0A20676F20696E746F20746865204968
:10489F005352000D0A20696E745F666C61673D2587
:1048AF0078000D0A20526563656976652068646D2E
:1048BF006920636563206D657373616765212121CD
:1048CF00000D0A206365635F6275665B25645D3D5D
:1048DF002578000D0A20766964656F206368616E24
:1048EF00676521212121212121212121212121211F
:0248FF00210096
:10534600EF6009D2AFD2AAC28AC28B22C2AFC2AA6A
:015356002234
:0300130002314275
:10314200C0E0C0F0C083C082C0D075D000C000C053
:0D31520001C002C003C004C005C006C007D4
:10315F009003A7E4F0A3F0A3F0A3748CF0A374D4AE
:10316F00F09003BDE4F0A3F0C2AA7BFF7A48798FF9
:10317F001234AE90851DE09003BDF07BFF7A487945
:10318F00A29003C2F01234AE9003BDE020E203021E
:10319F0032B790850D747FF0747BF090851DE090B1
:1031AF0003BDF07F647E0012512E7BFF7A4879B108
:1031BF001234AE908CD3E0541F9003A8F09003A765
:1031CF00E4F09003A8E0FF9003A7E0FEC39F503602
:1031DF009003A9A3E0FAA3E0F9EEFF7E00E92FF92F
:1031EF00EE3AFEAF011253C69003C3EFF07BFF7AA6
:1031FF004879D09003A7E09003C2F01234AE900349
:10320F00A7E004F080BC908CD3E09003ACF0908CDE
:10321F00D4E09003ADF0908CD5E09003AEF0908C9D
:10322F00D6E09003AFF0908CD7E09003B0F0908C85
:10323F00D8E09003B1F0908CD9E09003B2F0908C6D
:10324F00DAE09003B3F0908CDBE09003B4F0908C55
:10325F00DCE09003B5F0908CDDE09003B6F0908C3D
:10326F00DEE09003B7F0908CDFE09003B8F0908C25
:10327F00E0E09003B9F0908CE1E09003BAF0908C0D
:10328F00E2E09003BBF0908CE3E09003BCF090037E
:10329F00ACE0FF7B017A0379AC120000908CFC74D8
:1032AF007FF0E4F0908CF5F09003BDE030E7187BF1
:1032BF00FF7A4879E21234AE90850D74FBF0747B7F
:1032CF00F090046B7401F09003BDE030E10C908539
:0C32DF000D74FFF074FDF0125293D2AA9F
:1032EB00D007D006D005D004D003D002D001D00037
:0B32FB00D0D0D082D083D0F0D0E032E1
:105266000D0A0A204150502056657273696F6E20F0
:0752760025642E25640A00E7
:10512E00EF1FAA0670011E4A6013E4FCFDC3ED9446
:0D513E005EEC940150EA0DBD00010C80F004
:01514B002241
:105188001253571253887BFF7A5279669003C27480
:0D51980003F0A314F01234AE123D8880FB2A
:0353D4003078002E
:10535700759850438920758DFF758BFFD28ED29932
:015367002223
:08000300C2998F993099FD228A
:03000E00020003EA
:104C1F00AB07AA067C007D0A1205D2C3EF940AEEF9
:104C2F00648094805005EF2430800E7C007D0AAFA5
:104C3F0003AE021205D2EF2457FF12000E7C007D47
:104C4F000AAF03AE021205D2C3ED940AEC6480944E
:0F4C5F0080ED5004243080022457FF12000E22F3
:104736009003FAEEF0A3EFF07BFF7A5379D4121EC2
:104746004E7F027E0012512E9003FAE0FEA3E0FF98
:104756007C007D101205D2C3EF940AEE648094802B
:104766005005EF243080129003FAE0FEA3E0FF7CB0
:10477600007D101205D2EF2457FF12000E9003FAA7
:10478600E0FEA3E0FF7C007D101205D2C3ED940A83
:10479600EC64809480ED5004243080022457FF128C
:0347A600000E22E0
:104AD700AB07AA067C007D101205D2C3EF940AEE3D
:104AE700648094805005EF2430800E7C007D10AFE9
:104AF70003AE021205D2EF2457FF12000E7F2E12CB
:104B0700000E7C007D10AF03AE021205D2C3ED94F8
:104B17000AEC64809480ED5004243080022457FF0F
:044B270012000E2248
:104C6E00AB07AA067C007D101205D2C3EF940AEEA4
:104C7E00648094805005EF2430800E7C007D10AF50
:104C8E0003AE021205D2EF2457FF12000E7C007DF8
:104C9E0010AF03AE021205D2C3ED940AEC648094F9
:0F4CAE0080ED5004243080022457FF12000E22A4
:06190400900339120829CE
:10190A00E490033DF0A3120835000000009003396B
:10191A00E0FCA3E0FDA3E0FEA3E0FF90033E120873
:10192A00297F7F7E967D987C0090033EE0F8A3E0B5
:10193A00F9A3E0FAA3E0FBD31207C2407A7B807ACC
:10194A00967998780090033EE0FCA3E0FDA3E0FEC0
:10195A00A3E0FF120722E47B0AFAF9F8D31207C2BE
:10196A007B807A967998780090033EE0FCA3E0FDAC
:10197A00A3E0FEA3E0FF4008120722EF243080060E
:10198A00120722EF2457FF12000E90033EE0FCA339
:10199A00E0FDA3E0FEA3E0FF7B807A9679987800C9
:1019AA00120722AC00AD01AE02AF0390033E12084B
:1019BA002990033D7401F07F3F7E427D0F7C0090A9
:1019CA00033EE0F8A3E0F9A3E0FAA3E0FBD3120791
:1019DA00C2407C7B407A42790F780090033EE0FC5B
:1019EA00A3E0FDA3E0FEA3E0FF120722E47B0AFACC
:1019FA00F9F8D31207C27B407A42790F7800900334
:101A0A003EE0FCA3E0FDA3E0FEA3E0FF40081207CE
:101A1A0022EF24308006120722EF2457FF12000E0D
:101A2A0090033EE0FCA3E0FDA3E0FEA3E0FF7B40C1
:101A3A007A42790F7800120722AC00AD01AE02AFEC
:101A4A000390033E12082990033D7401F0800B9025
:101A5A00033DE060057F3012000E7F9F7E867D0188
:101A6A007C0090033EE0F8A3E0F9A3E0FAA3E0FBD0
:101A7A00D31207C25003021B107BA07A8679017821
:101A8A000090033EE0FCA3E0FDA3E0FEA3E0FF120A
:101A9A000722E47B0AFAF9F8D31207C27BA07A86F6
:101AAA00401909780090033EE0FCA3E0FDA3E0FEA4
:101ABA00A3E0FF120722EF24308018790178009002
:101ACA00033EE0FCA3E0FDA3E0FEA3E0FF12072231
:101ADA00EF2457FF12000E90033EE0FCA3E0FDA3A3
:101AEA00E0FEA3E0FF7BA07A867901780012072244
:101AFA00AC00AD01AE02AF0390033E120829900379
:101B0A003D7401F0800B90033DE060057F301200C8
:101B1A000EE47F0F7E27FDFC90033EE0F8A3E0F978
:101B2A00A3E0FAA3E0FBD31207C25003021BC1E4ED
:101B3A007B107A27F9F890033EE0FCA3E0FDA3E0CE
:101B4A00FEA3E0FF120722E47B0AFAF9F8D3120790
:101B5A00C2E47B107A274017F890033EE0FCA3E02A
:101B6A00FDA3E0FEA3E0FF120722EF24308016F95E
:101B7A00F890033EE0FCA3E0FDA3E0FEA3E0FF1221
:101B8A000722EF2457FF12000E90033EE0FCA3E069
:101B9A00FDA3E0FEA3E0FFE47B107A27F9F8120721
:101BAA0022AC00AD01AE02AF0390033E12082990A9
:101BBA00033D7401F0800B90033DE060057F301215
:101BCA00000EE47FE77E03FDFC90033EE0F8A3E00D
:101BDA00F9A3E0FAA3E0FBD31207C25003021C7276
:101BEA00E47BE87A03F9F890033EE0FCA3E0FDA366
:101BFA00E0FEA3E0FF120722E47B0AFAF9F8D31207
:101C0A0007C2E47BE87A034017F890033EE0FCA39E
:101C1A00E0FDA3E0FEA3E0FF120722EF24308016C6
:101C2A00F9F890033EE0FCA3E0FDA3E0FEA3E0FF89
:101C3A00120722EF2457FF12000E90033EE0FCA386
:101C4A00E0FDA3E0FEA3E0FFE47BE87A03F9F812E3
:101C5A000722AC00AD01AE02AF0390033E12082981
:101C6A0090033D7401F0800B90033DE060057F30E6
:101C7A0012000EE47F63FEFDFC90033EE0F8A3E051
:101C8A00F9A3E0FAA3E0FBD31207C25003021D1F17
:101C9A00E47B64FAF9F890033EE0FCA3E0FDA3E0DC
:101CAA00FEA3E0FF120722E47B0AFAF9F8D312072F
:101CBA00C2E47B644017F890033EE0FCA3E0FDA376
:101CCA00E0FEA3E0FF120722EF24308017FAF9F8AA
:101CDA0090033EE0FCA3E0FDA3E0FEA3E0FF1207B1
:101CEA0022EF2457FF12000E90033EE0FCA3E0FD12
:101CFA00A3E0FEA3E0FFE47B64FAF9F8120722AC42
:101D0A0000AD01AE02AF0390033E12082990033DD5
:101D1A007401F0800B90033DE060057F3012000EE5
:101D2A00E47B0AFAF9F890033EE0FCA3E0FDA3E0A5
:101D3A00FEA3E0FF120722E47B0AFAF9F8D312079E
:101D4A00C2E44017F890033EE0FCA3E0FDA3E0FEE6
:101D5A00A3E0FF120722EF243080197B0AFAF9F870
:101D6A0090033EE0FCA3E0FDA3E0FEA3E0FF120720
:101D7A0022EF2457FF12000EE47B0AFAF9F89003C7
:101D8A003EE0FCA3E0FDA3E0FEA3E0FF120722ACC5
:101D9A0000AD01AE02AF03E47B0AFAF9F8D31207E9
:101DAA00C2E44017F890033EE0FCA3E0FDA3E0FE86
:101DBA00A3E0FF120722EB243080197B0AFAF9F814
:101DCA0090033EE0FCA3E0FDA3E0FEA3E0FF1207C0
:081DDA0022EB2457FF12000E5A
:011DE20022DE
:0B34AE009003BFEBF0A3EAF0A3E9F0ED
:1034B9009003EA12083500000000E49003EEF0A33F
:1034C900F0F9A3C9F0A3F0A3E9F0E4A3F0F9A3C9C3
:1034D900F0A3F0A3E9F0A37401F0A37403F0A374BB
:1034E900C2F09003BFE0F9A3E0FAA3E09003F4C9A6
:1034F900F0A3EAF0A3E9F09003F4E0FBA3E0FAA358
:10350900E0F912052570030236416425600302368D
:10351900279003F4A3E475F001120608A9F0FA1242
:10352900052524DB700302361524E1603A24EE7088
:10353900030235EC24FE605924F4602B24EE607AF2
:1035490024FE604D2415600302361A9003F7E0FB50
:10355900A3E475F00212061EA9F0FA1206349003CC
:10356900F3F0E0FF0236179003F7E0FBA3E475F0F0
:103579000112061EA9F0FA120525FF9003EEE4F0E8
:10358900A3EFF09003EEA3E0FF7E00124C1F02367A
:103599001A9003F7E0FBA3E475F00112061EA9F0E7
:1035A900FA120525FF9003EEE4F0A3EFF09003EE85
:1035B900E0FEA3E0FF12473680579003F7E0FBA334
:1035C900E475F00112061EA9F0FA120525FF900311
:1035D900EEE4F0A3EFF09003EEE0FEA3E0FF124C5F
:1035E9006E802E9003F7E0FBA3E475F00112061E2E
:1035F900A9F0FA120525FF9003EEE4F0A3EFF0908D
:1036090003EEE0FEA3E0FF124AD780057F251200F2
:103619000E9003F5E475F0011206080235009003D7
:10362900F4E0FBA3E475F00112061EA9F0FA1205F5
:1036390025FF12000E0235009003F7E4F0A3F0A372
:01364900F090
:01364A00225D
:0951DF001251E8E04480F07F0A5F
:1051E800E4FEEEC39F500B00000000000000000E1C
:0251F80080F045
:0151FA002292
:10514C00908590E04408F07F011251DFE054F7F0B5
:0E515C007F071251E8E0547FF07F010251E816
:0C50AB00124B2BEF12056B7F01124ED749
:1050B700908590E054F7F07F021251DFE04408F04A
:0550C7007F0A0251E820
:0244B600AD0750
:1044B800E4FCECC3940874809480503CA804ED0894
:1044C8008002C333D8FC90859030E70DE0547FF02C
:1044D800000000E04408F0800BE0547FF00000008A
:1044E800E054F7F07F031251E8908590E04480F0A3
:1044F8007F041251E80C80BA908590E0547FF07FD9
:10450800011251E8E04408F07F031251E8E04480CA
:10451800F07F031251E8908591E030E007E49004C1
:104528007AF0800690047A7401F0908590E0547FC8
:06453800F07F030251E8D0
:104B2B00E4FD908590E04408F0E4FCECC394087439
:104B3B00809480502E7F011251E8908590E0547F35
:104B4B00F07F041251E8E04480F07F021251E8ED4F
:104B5B0025E0FD908591E030E0010D7F021251E8D8
:104B6B000C80C8908590E0547FF07F051251E8AF20
:014B7B000534
:014B7C002216
:094ECE00124B2BEF12056BE4FFFF
:104ED700EF9085907006E054F7F08004E04408F006
:104EE7007F081251E8908590E04480F07F0F1251BF
:0A4EF700E8E0547FF07F080251E864
:0749700090032AEDF0AC07F3
:1049770012514CAF041244B690047AE07002802DB5
:1049870090032AE0FF1244B690047AE07002801D7B
:10499700E490032FF090032EE0FFA3E0C39F502283
:1049A700120525FF1244B690047AE070061250B73C
:1049B7007F0022740129F9E43AFA90032FE004F00A
:0749C70080D31250B77F01FD
:0149CE0022C6
:08490100900330EFF0A3EDF08C
:1049090012514C900330E0FF1244B690047AE070E3
:10491900028022900331E0FF1244B690047AE070DD
:1049290002801212514C900330E004FF1244B690F9
:10493900047AE070091250B7E412056BFF22E49083
:104949000336F0900335E014FFA3E0C39F50121221
:104959004ECE740129F9E43AFA900336E004F08066
:06496900E21250AB7F01D9
:01496F002225
:08464200900330EFF0A3EDF04E
:10464A0012514C7F601244B67F011244B612514C8B
:10465A00900330E0FF1244B690047AE070028022A0
:10466A00900331E0FF1244B690047AE0700280129F
:10467A0012514C900330E004FF1244B690047AE0E1
:10468A0070091250B7E412056BFF22E4900336F06A
:10469A00900335E014FFA3E0C39F5012124ECE746C
:1046AA000129F9E43AFA900336E004F080E2125064
:0346BA00AB7F01D2
:0146BD0022DA
:02506600AE0793
:10506800E4900329F0900479E0FFAD067B017A0310
:1050780079299003357401F0124901900329E0FF62
:015088002205
:0252A900AE074E
:1052AB00900479E0FFAD0690032FE0900335F002F8
:0252BB004901A7
:0252BD00AE073A
:1052BF00900479E0FFAD0690032FE0900335F002E4
:0252CF00464255
:0751A500900328EDF0AE07B6
:1051AC00900479E0FFAD067B017A03792890032EF9
:0651BC007401F0024970CD
:0252D100AE0726
:1052D300900479E0FFAD06900474E090032EF00291
:0252E300497010
:1050CC00EF24FE600E1460122402701490047974A4
:1050DC00A0F02290047974A8F0229004797474F0F2
:0150EC0022A1
:103306000D0A205772697465204564696420546FFC
:1033160020536861646F772053756365737321006A
:103326000D0A2052656164204544494421000D0A76
:1033360020426C6F636B20312043726320457272AA
:103346006F72000D0A204544494420426C6F636B3E
:10335600313A000D0A002025760020000D0A204291
:103366006C6F636B203220437263204572726F72FA
:10337600000D0A204544494420426C6F636B323A83
:10338600000D0A204544494420426C6F636B333A72
:10339600000D0A204544494420426C6F636B343A61
:1033A600000D0A204544494420426C6F636B31206E
:1033B6005B3132365D206572726F72000D0A2045F0
:1033C60044494420777269746520746F207368617C
:1033D600646F7721000D0A2053656E6420454449C9
:1033E600445F49525120766961204750494F352044
:1033F600000D0A20454449442072656164206572C7
:10340600726F7221000D0A2057726974652053434A
:10341600444321000D0A2057726974696E672E2E87
:103426002E2E000D0A2057726974652053434443BB
:1034360020416761696E21000D0A203078383541D8
:1034460030203D202576000D0A20577269746520CC
:1034560053434443205375636365737321000D0A18
:10346600205772697465205343444320303021004D
:103476000D0A2057726974652053434443204167FF
:1034860061696E2047657421000D0A20536574201A
:1034960053434443204F6E000D0A20536574205356
:0834A600434443204F66660019
:04366F004102000014
:0753B80090B00B7410F0220D
:104F67001253B8E4FFFE90B00AEFF02400F5827404
:104F7700003EF583E090B0B0F00FBF00010EE4B53E
:0F4F870007E4EEB401E07BFF7A3379060234AE23
:10226600E4900327F0A3F0A3F0A3F07BFF7A337981
:10227600261234AE908590E04480F054DFF044108E
:10228600F04408F054FDF04401F07F011250CC7E7A
:10229600017F007D007B017A0079001208D9E49065
:1022A6000327F0A3F0900327E0FCA3E0FDC433541A
:1022B600E0FFC007AE04ED7805C333CE33CED8F9C0
:1022C6002400F974003EFA7B0190032F7420F0D0AD
:1022D600071252A9900328E004F07006900327E045
:1022E60004F0C3900328E09404900327E094004090
:1022F600B4E4900327F0A3F0900327E0FEA3E0FFE9
:10230600C39480EE9400502974002FF58274003E29
:10231600F583E0FF90032AE02FF0900329E03400D4
:10232600F0900328E004F070CF900327E004F080DB
:10233600C790032AE0601B7BFF7A3379341234AEF0
:102346007E017F007D007B017A0079001208D902A8
:1023560026A17BFF7A3379491234AEE4900327F045
:10236600A3F0900327E0FEA3E0FFC39480EE940061
:102376005045EF540F70097BFF7A3379591234AE0A
:102386007BFF7A33795C900327E0FEA3E02400F517
:102396008274003EF583E09003C2F01234AE7BFFF8
:1023A6007A3379601234AE900328E004F070B3906B
:1023B6000327E004F080AB90007EE0FD7C00700413
:1023C600FE7F8022ED64014C600B90007EE064038A
:1023D6006003022698E4900327F0A3F0900327E019
:1023E600FCA3E0FDC43354E02480FFC007AE04ED37
:1023F6007805C333CE33CED8F92480F974003EFA7B
:102406007B0190032F7420F0D0071252A990032865
:10241600E004F07006900327E004F0C3900328E080
:102426009404900327E0940040B290007EE0640399
:1024360060030224F07E01FFFD7B017A0179001220
:1024460008D9E4900327F0A3F0900327E0FCA3E06B
:10245600FDC43354E0FFC007AE04ED7805C333CEA8
:1024660033CED8F92400F974013EFA7B0190032F8C
:102476007420F0D0071252BD900328E004F07006D5
:10248600900327E004F0C3900328E0940490032708
:10249600E0940040B4E4900327F0A3F0900327E013
:1024A600FCA3E0FDC43354E02480FFC007AE04ED76
:1024B6007805C333CE33CED8F92480F974013EFAB9
:1024C6007B0190032F7420F0D0071252BD90032891
:1024D600E004F07006900327E004F0C3900328E0C0
:1024E6009404900327E0940040B2E4900329F0A3FB
:1024F600F0900327F0A3F0900327E0FEA3E0FFC3CC
:102506009480EE9400502974802FF58274003EF575
:1025160083E0FF90032AE02FF0900329E03400F0D7
:10252600900328E004F070CF900327E004F080C702
:1025360090032AE0601D7BFF7A3379621234AE7E07
:10254600017F007D007B017A0079001208D97E00A8
:102556007F80227BFF7A3379771234AEE4900327AB
:10256600F0A3F0900327E0FEA3E0FFC39480EE946F
:10257600005045EF540F70097BFF7A3379591234B6
:10258600AE7BFF7A33795C900327E0FEA3E02480DC
:10259600F58274003EF583E09003C2F01234AE7B00
:1025A600FF7A3379601234AE900328E004F070B3FA
:1025B600900327E004F080AB90007EE064036003A4
:1025C6000226937BFF7A3379871234AEE490032791
:1025D600F0A3F0900327E0FEA3E0FFC39480EE94FF
:1025E600005045EF540F70097BFF7A337959123446
:1025F600AE7BFF7A33795C900327E0FEA3E02400EC
:10260600F58274013EF583E09003C2F01234AE7B8E
:10261600FF7A3379601234AE900328E004F070B389
:10262600900327E004F080AB7BFF7A33799712346E
:10263600AEE4900327F0A3F0900327E0FEA3E0FFAB
:10264600C39480EE94005045EF540F70097BFF7AD7
:102656003379591234AE7BFF7A33795C900327E0E5
:10266600FEA3E02480F58274013EF583E09003C268
:10267600F01234AE7BFF7A3379601234AE900328C1
:10268600E004F070B3900327E004F080AB7E017F96
:0E26960000227BFF7A3379A71234AEE4FEFFF8
:0126A4002213
:104A2800E4900324F0A3F0A3F0F0900326E0C394ED
:104A380003748094805040122266900324EEF0A301
:104A4800EFF04E60217BFF7A3379C21234AE124FF9
:104A58006790B023E04401F07BFF7A3379DB1234AE
:104A6800AEE4FF024E5D7BFF7A3379F71234AE90E5
:074A78000326E004F080B307
:014A7F002214
:05393100900324EFF0FB
:10393600E4A3F0A3F0A3F0908590E04480F054DF78
:10394600F04410F04408F054FDF04401F07F0212F8
:1039560050CC900324E07003023A7090C006743095
:10396600F07BFF7A34790B1234AEE4900326F090A4
:103976000326E0C3940A748094804003023A817D52
:10398600037F201251A57F327E0012512E7BFF7AD3
:1039960034791A1234AE7F20125066EF6403600346
:1039A600023A67900325F0900325E0C3946474807F
:1039B60094804003023A817F21125066EF640160D1
:1039C6002A7BFF7A3479291234AE7BFF7A34793E2A
:1039D6009085A0E09003C2F01234AE7D037F2012E2
:1039E60051A57F0A7E0012512E8019900327E0040C
:1039F600F0E0D394057480948040097BFF7A347993
:103A06004D0234AE900325E02401FFE433FE7C0032
:103A16007D061205D2ED4C703FFD7F201251A57B2D
:103A2600FF7A3479641234AE7F0A7E0012512E90EA
:103A3600827F7460F0E4908283F090827F7470F0ED
:103A4600908118747FF074FFF014F004F090828374
:103A5600F07F0A7E0012512E900325E004F0023911
:103A6600AD900326E004F0023975E490C006F0FD3F
:0B3A76007F201251A590B00A7420F0D0
:013A81002222
:104CBD0090046DE06043908590E04480F054DFF007
:104CCD004410F04408F054FDF04401F07F021250FE
:104CDD00CC7F0A7E0012512E7F21125066EF6401A7
:104CED007BFF600E7A3479761234AE7D037F20021D
:0A4CFD0051A57A34794D1234AE222D
:10510E0090046DE07BFF600B7A34798F1234AE7FA2
:10511E000180097A34799E1234AEE4FF12393122BD
:0536730042047B000091
:10536800438901758CB1758AE0D2B9D2A9C28C2261
:0953AF00758CB1758AE0D28C22E4
:03000B000250EDB3
:1050ED00C0E0C083C082758CB1758AE090047CE00D
:1050FD0004F0700690047BE004F0D082D083D0E001
:01510D00326F
:10367800611E020600FA006C00FA0F0011600011CA
:10368800001E0011087008B01E00001001990010FB
:103698000F0010B90010006C0010087008FC1E0024
:1036A800001000FD00100F00101D001000D00010C9
:1036B800087009601E000028005000280F000FA0A5
:1036C8000096000F0096087009AB1E00007C0042AF
:1036D80000D60B500CE4000B000E0063075407D013
:1036E8000F000010012A0010078008CA00100052BD
:1036F8000010060006721E000058002C0094078077
:10370800089800040004001602D002EE3C000028CD
:1037180000200028078007F000030002000602D0FE
:1037280002DB3C000058002C009407800898000435
:103738000005018C02D004653C000058002C009460
:103748000780089800050005018B02D004651E005B
:103758000058002C009407800898000400050024F5
:10376800043804653C000058002C00940780089831
:10377800000400050024043804651E2201C2004626
:1037880001C2050008CA00960050009602D0044CF9
:0A3798001E004502010100000000C0
:100939000D0A20536574206C616E65206E756D20FB
:100949003D202578000D0A205761697420666F7271
:100959002074686520696E707574206D69706920EE
:10096900666F7220636865636B2074686520706FB9
:100979007274000D0A20506F727420412073656CE7
:1009890065637420617320696E70757420706F726D
:1009990074000D0A20506F727420422073656C65D3
:1009A900637420617320696E70757420706F72743E
:1009B900000D0A2323232323232323232323232350
:1009C9002323232323204C543936313155582049C8
:1009D9006E697420537461727420232323232323A3
:1009E9002323232323232323232323000D0A204600
:1009F900572056657273696F6E3A20560025560066
:100A09002E2576000D0A2063686970206964203DEF
:100A1900202576002576000D0A20536574204D693E
:100A2900706920536574746C653A202578000D0A45
:100A390020536574204D69706920536574746C6521
:100A49003A2030783036000D0A206D6970692062CD
:100A5900797465636C6B203D20000D0A20496E7026
:100A69007574204D49504920464D543A2043534905
:100A79005F5955563432325F38000D0A20496E707D
:100A89007574204D49504920464D543A20435349E5
:100A99005F5955563432305F38000D0A20496E705F
:100AA9007574204D49504920464D543A20524742C9
:100AB900383838000D0A20496E707574204D495038
:100AC9004920464D543A204353495F5955563432CB
:100AD900325F3130000D0A20636F6C6F7273617081
:100AE90063655F696E203D202578000D0A20496EF7
:100AF900707574204D49504920464D543A20595536
:100B0900565F3136000D0A20496E707574204D49C3
:100B1900504920464D543A204453495F595556345B
:100B29003230000D0A20685F616374203D20000D9A
:100B39000A20765F616374203D20000D0A20765FEC
:100B4900746F74616C203D20000D0A20766964651C
:100B59006F5F7265736F6C7574696F6E203D207677
:100B69006964656F5F0078005F000D0A2070636C2F
:100B79006B5F6B687A203D20000D0A2048746F7402
:100B8900616C5F737973636C6B5F6E756D203D206B
:100B9900000D0A204672616D655F737973636C6B32
:100BA9005F6E756D203D20000D0A2048444D492097
:100BB900322E30000D0A2048444D4920312E340090
:100BC9000D0A20446F206E6F742066696E6420617F
:100BD90020766964656F2066726F6D207468652080
:100BE9006C6973742121000D0A207061685F61636B
:100BF90074203D20000D0A207062685F61637420D3
:100C09003D20000D0A20736574746C65203D202514
:100C190078000D0A20415649205061636B65747351
:100C29003A202578202578202578202578202578D0
:100C3900202578202578202578000D0A2068646D04
:100C490069206F7574212121000D0A2053656E6496
:100C5900204850445F4952512076696120475049E4
:100C69004F3520000D0A20485044206368616E67A3
:100C79006520746F204869676820000D0A20485074
:100C890044206368616E676520746F204C6F77201C
:100C9900000D0A204C6F61642048444350204B6585
:100CA90079207375636365737321000D0A204861A8
:100CB9007665206E6F2076616C69642048444350E4
:100CC900204B65792120436C6F73652048444D4959
:100CD900206F757470757421000D0A20344B3630FD
:100CE900206275742048444350312E342C20747589
:100CF900726E206F66662068646D69207478000DD5
:100D09000A20526561642048444350205665727335
:100D1900696F6E204572726F72000D0A20537461FB
:100D290072742048444350312E3420456E637279E1
:100D39007074696F6E000D0A2053746172742048D3
:100D4900444350322E3220456E6372797074696F54
:100D59006E000D0A2048444350312E3420456E61FF
:100D6900626C652053756363657373000D0A2048CF
:100D790044435020456E61626C65204661696C0090
:100D89000D0A2048444350322E3220456E61626C70
:100D9900652053756363657373000D0A20456E748E
:100DA90065722074686520736C656570206D6F6469
:100DB9006521212057616B65207570207468726FF9
:100DC9007567682074686520726573657420706939
:100DD9006E2E20000D0A20456E74657220746865B8
:100DE900207374616E646279206D6F6465212120BE
:100DF90057616B65207570207468726F756768201C
:100E09007468652072657365742070696E206F72ED
:100E1900206870642E000D0A2057616B652055709B
:100E29002121000D0A20424B44305F30425F524578
:100E3900473A20257800202020424B44305F304338
:100E49005F5245473A202578000D0A20424B44302D
:100E59005F34435F5245473A2025780020202042DD
:100E69004B44305F34445F5245473A202578000DA2
:100E79000A204C543936313155585F52585F4D6903
:100E890070695F5365743A20496E707574204D69B5
:100E9900706920706F7274206572726F7221000D13
:100EA9000A204D6970692070637220737461626CE5
:100EB90065212121212121212121212121212121D5
:100EC9002121212121212121212121000D0A204D2A
:100ED9006970692070637220756E737461626C65E4
:100EE90021212121212121212121212121212121E9
:100EF9002121212121212121000D0A207478706CE2
:100F09006C2063616C6962726174696F6E20646FD1
:100F19006E65000D0A20476574576F7264436F75DB
:100F29006E74203D20257800202578000D0A206464
:100F39006574656374206D697069206368616E67A3
:100F490065212121000D0A20646574656374206D93
:100F590069706920636C6B20646973617070656185
:100F690072212121000D0A20435343000D0A20520A
:100F7900656164204D49504920537461747573202B
:100F89005265676973746572733A000A0D0020002F
:100F99000D0A204D49504920506F72744120574322
:100FA9003A202578202578000D0A204D49504920FE
:100FB900506F7274422057433A20257820257800D3
:100FC9000D0A204D49504920506F727441205365D4
:100FD90074746C652F534F543A2025782025782056
:100FE9002578202578202578202578202578202522
:100FF90078000D0A204D49504920506F72744220E3
:10100900536574746C652F534F543A202578202505
:10101900782025782025782025782025782025789E
:10102900202578000D0A204D49504920506F7274CF
:101039004120504E3A202578000D0A204D4950494B
:1010490020506F72744220504E3A202578000D0AC4
:10105900207669645F63686B5F666C61673D2578BC
:10106900000D0A2053657420546F20435349204DC5
:101079006F646521000D0A2053657420546F204464
:101089005349204D6F646521000D0A2053656C6535
:10109900637420506F72744120417320496E7075DA
:1010A90074000D0A2053656C65637420506F727467
:1010B9004220417320496E707574000D0A205365F2
:1010C9006C65637420426F746820506F727441209C
:1010D900616E6420506F72744220417320496E70B2
:1010E9007574000D0A2053657420546F2034204C08
:1010F900616E65000D0A2053657420546F203120FC
:101109004C616E65000D0A2053657420546F2032BE
:10111900204C616E65000D0A2053657420546F20C0
:1011290033204C616E65000D0A2048444350204429
:10113900697361626C65000D0A2048444350312E81
:101149003420456E61626C65000D0A2048444350A5
:10115900322E3220456E61626C65000D0A204844CA
:10116900435020456E61626C652C204175746F2077
:10117900436865636B204844435020566572736920
:101189006F6E000D0A2043454320456E61626C6510
:1011990021000D0A204345432044697361626C654F
:0211A900210023
:1037A2004104644241046608420461000041046528
:1037B2000042045F000041045E0141045D004104D7
:1037C200638842042C000042042E000042043000B0
:0137D2002DC9
:06508900900475120829D5
:10508F007F007E007D007C3F900475E0F8A3E0F97F
:0C509F00A3E0FAA3E0FB12001D0201ECEC
:06430600900339120829A2
:10430C009003411208350000000090033DE0FCA32F
:10431C00E0FDA3E0FEA3E0FF900339E0F8A3E0F991
:10432C00A3E0FAA3E0FBD31207C2402B90033DE0BD
:10433C00F8A3E0F9A3E0FAA3E0FB900339E0FCA3B7
:10434C00E0FDA3E0FEA3E09BFFEE9AFEED99FDECF1
:10435C0098FC9003418026900339E0F8A3E0F9A380
:10436C00E0FAA3E0FBA3E0FCA3E0FDA3E0FEA3E0E6
:10437C00C39BFFEE9AFEED99FDEC98FCA312082965
:0E438C00900341E0FCA3E0FDA3E0FEA3E0FFF0
:01439A002200
:0753BF008F828E83EDF022C6
:0753C6008F828E83E0FF22BD
:1051C2009082FB740FF09082FC74CCF09082EB74AE
:0D51D20044F09082ECF09082ED7440F022E9
:104F010090042DE004F0700690042CE004F0D3909E
:104F1100042DE0940190042CE0940040159082FB54
:104F2100E0FF4404FEEF5404F45EF0E490042CF03E
:024F3100A3F0EB
:014F3300225B
:10537800EF9082FC6005E04404F022E054FBF02248
:104E5D00EFFD7C006401700990B022E04402F08007
:104E6D0019ED4C700990B022E04401F0800CEF6414
:104E7D0003700790B022E04408F0E4FF1253787FEE
:0B4E8D00057E0012512E7F01025378B9
:0753CD0090855D740FF022D2
:104F3400E490810CF0908118F090811D7440F0E4AD
:104F440090811EF07F0AFE12512E90810C74EEF0B7
:104F540090811874F9F090811D74FFF090811E7493
:034F6400E0F02258
:1051FB00E490810CF090810DF07F0AFE12512E90FD
:0C520B00810C74EEF090810D74CEF02246
:104F9600E490811DF090811EF090810A74EFF07FFD
:104FA6000A7E0012512E90811D74FFF090811E74AE
:0F4FB600E0F090810A74FFF07F0A7E0002512E16
:1052320090810A74F0F07F0A7E0012512E90810A4A
:0A52420074FFF07F0A7E0002512E77
:1052E50090811974EFF07F0A7E0012512E9081197A
:0452F50074FFF02230
:104FF300900202E0640290855070057422F08003F1
:105003007420F07F327E0012512E908558E030E6F6
:07501300037F01227F002250
:1049CF00E4FDFCFE90044DE0FB7A00640170030EE1
:1049DF00801AEB64024A70047E058010EB64034A70
:1049EF0070047E158006EB4A70027E5590D0BCE0B5
:1049FF006E70237F1EFE12512E90D090E07C00FE31
:104A0F0090D091E02400FDEC3EFED3ED9432EE9475
:084A1F000040037F01227F002B
:014A2700226C
:104D5100E4FE90047FF0EEC39404748094805016B6
:104D6100EF54036401700690047FE004F0EF131325
:104D7100543FFF0E80E07BFF7A09793990047FE090
:104D81009003C2F01234AE90047FE070037404F01B
:054D910090047FE0FF2B
:014D960022FA
:103FCB00E490047DF0A3F090044CF07BFF7A097928
:103FDB004E1234AE9085507420F07F327E00125119
:103FEB002E908558E030E60F7BFF7A09797C1234EE
:103FFB00AE90044CE004F09085507422F07F327E3A
:10400B000012512E908558E030E61A7BFF7A097921
:10401B009B1234AE90044CE004F0E0640170069007
:10402B0085F5748BF090044CE0D3940074809480ED
:10403B00402F90D0BCE090047DF0D394007480941A
:10404B00804002801190D0C6E090047EF0D39400A3
:10405B00748094804015E0FF124D5190044DEFF0A9
:0B406B00227FF47E0112512E023FDF85
:014076002227
:10439B00908100E0900324F0908101E0900325F0E0
:1043AB00908102E0900326F07BFF7A0979BA1234F0
:1043BB00AE7BFF7A0979F51234AE7BFF7A0A790668
:1043CB00900464E09003C2F01234AE7BFF7A0A795A
:1043DB0009900466E09003C2F01234AE900464E0DE
:1043EB0090B021F0900466E090B020F07BFF7A0A49
:1043FB00790D900324E09003C2F01234AE7BFF7A68
:10440B000A791D900325E09003C2F01234AE7BFFB6
:0F441B007A0A791D900326E09003C2F00234AEB6
:104D9700124F347F327E0012512E9082067401F03A
:104DA70090820E747DF090821A7401F090822274C2
:104DB7007DF09082317403F0908239F0908207740D
:104DC70020F090821BF09082E47410F09085EC74D0
:034DD70099F0222E
:104B7D00E4900339F090D098E0FF900339F07E0077
:104B8D00D39410748094804024EF9450748094805A
:104B9D00501B7BFF7A0A7920E024FB9003C2F012B0
:104BAD0034AE900339E024FB90D002800E7BFF7A67
:104BBD000A79371234AE90D0027406F090D006F018
:014BCD0022C5
:10524C00E4908144F0908149F090814CF090814D34
:0A525C00F090814EF0908150F02296
:10411F0012524C9085E87422F090044CE0FF7E0020
:10412F00640170028014EF64024E70089085F5747C
:10413F0088F0800CEF64034E70069085F57422F0C2
:10414F0090044DE0FF7E006401700790D00004F0F2
:10415F008024EF64024E700890D0007402F0801635
:10416F00EF64034E700890D0007403F08008EF4E98
:10417F00700490D000F090D0027405F090044EE0DF
:10418F006401700790D00874108004E490D008F098
:10419F0090D009F090044CE0FF7E0064016005EFC1
:1041AF0064027006E490D00AF022EF64034E7006AA
:0741BF0090D00A7403F02206
:10533400908686E0FE908687E07C002400FFEC3EA9
:01534400FE6A
:015345002245
:104BCE007E007D007C00908688E0FFE47808120766
:104BDE00E6A804A905AA06AB07908689E0FFE4FCC7
:104BEE00FDFEEB2FFFEE3AFEED39FDEC38FC7808BA
:104BFE001207E6A804A905AA06AB0790868AE0FF6D
:104C0E00E4FCFDFEEB2FFFEE3AFEED39FDEC38FC39
:014C1E002273
:103E650090D016E054F0F090D018E054F0F090D0D7
:103E75001AE054F0F090001212065FFDACF0EC90E1
:103E8500D00DF0AF0590D00EEFF090001012065F48
:103E9500FDACF0EC90D00FF0AF0590D010EFF090A6
:103EA500000812065FFDACF0EC90D011F0AF059064
:103EB500D012EFF090000612065FFDACF0EC90D04A
:103EC50013F0AF0590D014EFF090000C12065F9040
:103ED500D015F090000212065FFDACF0ECFF90D01B
:103EE50016E04FF0AF0590D017EFF090000A1206DC
:103EF5005FFDACF0ECFF90D018E04FF0AF0590D02F
:103F050019EFF0120634FDACF0ECFF90D01AE04F3B
:093F1500F0AF0590D01BEFF02283
:10453E007F007E007D007C00E4FB9003391208357D
:10454E0000000000908688E0FFE4FCFDFE78081273
:10455E0007E6A804A905AA06AB07908689E0FFE442
:10456E00FCFDFEEB2FFFEE3AFEED39FDEC38FC784C
:10457E00081207E6A804A905AA06AB0790868AE0EA
:10458E00FFE4FCFDFEEB2FFFEE3AFEED39FDEC38BD
:10459E00FCE41201AEA804A905AA06AB077F007EB3
:1045AE001B7DB77C4B120111E4FBFAF9783F120028
:0445BE001D0201ECED
:103F1E0090033912083500000000E4FEFDFC908687
:103F2E0088E0FFE4900339120829900339E0FCA3DE
:103F3E00E0FDA3E0FEA3E0FF78081207E6A804A9BF
:103F4E0005AA06AB07908689E0FFE4FCFDFEEB2F89
:103F5E00FFEE3AFEED39FDEC38FC900339120829DC
:103F6E00900339E0FCA3E0FDA3E0FEA3E0FF780898
:103F7E001207E6A804A905AA06AB0790868AE0FFF9
:103F8E00E4FCFDFEEB2FFFEE3AFEED39FDEC38FCC6
:103F9E00900339120829908686E0FE908687E07C91
:103FAE00002400FFEC3EAB07FAE4F9F8900339E089
:0D3FBE00FCA3E0FDA3E0FEA3E0FF0207224C
:1011AB00E4900324F0A3F0A3F0A3F0A3F0A3F0A327
:1011BB00F0A3F0A3F0A3F0A3F0A3F0A3F0A3F0A38C
:1011CB00F0A3F0A3F0A3120835000000001249CFE2
:1011DB00EF640160077F647E0002190090044CE00D
:1011EB00640290855070057422F080037420F07FA8
:1011FB00147E0012512E908558E0540FFFE4FCFD35
:10120B00FE900335120829900335E0FCA3E0FDA303
:10121B00E0FEA3E0FF78081207E6A804A905AA06DA
:10122B00AB07908559E0FFE4FCFDFEEB2FFFEE3A98
:10123B00FEED39FDEC38FC9003351208299003358F
:10124B00E0FCA3E0FDA3E0FEA3E0FF78081207E6B5
:10125B00A804A905AA06AB0790855AE0FFE4FCFD9C
:10126B00FEEB2FFFEE3AFEED39FDEC38FC9003352B
:10127B001208297BFF7A0A79501234AE900335E0BD
:10128B00FCA3E0FDA3E0FEA3E0FF1219047F1E7E8A
:10129B000012512E124B7D90D082E0FE90D083E055
:1012AB007C002400FFEC3E900328F0A3EFF090D0DD
:1012BB0086E0FE90D087E02400FFEC3E90032AF0FE
:1012CB00A3EFF090D090E0FE90D091E02400FFECE3
:1012DB003E900324F0A3EFF090866CE0FE90866DB9
:1012EB00E02400FFEC3E90032CF0A3EFF090D088AD
:1012FB00E0540F90044FF090044EE0640170569050
:10130B00D016F090044FE0640370087BFF7A0A79E3
:10131B0063805090044FE06406700E90D0167410EA
:10132B00F07BFF7A0A7983807190044FE0640A7036
:10133B00087BFF7A0A79A3806190044FE0640E70FA
:10134B00087BFF7A0A79BD805190044FE07003024D
:10135B0019030213DF90044FE06403701F7BFF7AC5
:10136B000A79F41234AE900328E0C313F0A3E01310
:10137B00F0A3E0C313F0A3E013F0806590044FE0FB
:10138B00640670087BFF7A0B790E800E90044FE099
:10139B00640A70377BFF7A0A79A31234AE90032864
:1013AB00E0FEA3E0FF7C007D0312057D900328EE99
:1013BB00F0A3EFF0A3E0FEA3E0FF7C007D0312059A
:1013CB007D90032AEEF0A3EFF0801690044FE070AF
:1013DB00030219037BFF7A0A79DE9003C2F0023411
:1013EB00AE90044FE06406606490044CE0FF64012F
:1013FB006005EF64027056900328E0FEA3E0FFBE89
:10140B00071BBF8018A3E0B40713A3E0B4800E90B2
:10141B000324E064087004A3E064706020E4B50763
:10142B002CEEB4082890032AE0B40821A3E0B40002
:10143B001C900324E0B40815A3E0B4701090044C86
:10144B007403F090D00AF09085F57422F0E49003C9
:10145B0026F0A3F090044CE0FF64016005EF6402FA
:10146B007016900328E0FEA3E0FF900327E02FF017
:10147B00900326E03EF0802290044CE06403701A47
:10148B0090032AE0FEA3E0FF900329E02FFF9003D7
:10149B0028E03E900326F0A3EFF07BFF7A0B792C2C
:1014AB001234AE900326E0FEA3E0FFE4FCFD12191C
:1014BB00047BFF7A0B79381234AE900324E0FEA341
:1014CB00E0FFE4FCFD1219047BFF7A0B7944123424
:1014DB00AE90032CE0FEA3E0FFE4FCFD1219041216
:1014EB003F1E900331EEF0A3EFF07BFF7A0B7944B4
:1014FB001234AE900331E0FEA3E0FFE4FCFD1219C1
:10150B00049003307432F0E4900333F0900330E036
:10151B00FF900333E0FEC39F400302188D75F01656
:10152B00EEA4240CF582E5F03402F583E0FEA3E093
:10153B00FF900326E06E7003A3E06F600302185464
:10154B00900333E075F016A42416F582E5F034020F
:10155B00F583E0FEA3E0FF900324E06E7003A3E0AD
:10156B006F6003021854900331E0FEA3E0FFE4FC2C
:10157B00FDC004C005C006C007A3E075F016A42487
:10158B0018F582E5F03402F583E0FEA3E0FFE4906A
:10159B00033D120829D007D006D005D0041243060C
:1015AB00E47B0AFAF9F8D31207C25003021854125B
:1015BB00453E900446EFF0900333E0F975F016A426
:1015CB00241AF582E5F03402F583E06F600302180C
:1015DB0054900333E0FF75F016A42406F582E5F072
:1015EB003402F583E0FDA3E0900432CDF0A3EDF0DF
:1015FB0075F016EFA42408F582E5F03402F583E0CC
:10160B00FFA3E0900434CFF0A3EFF0900333E0FF9F
:10161B0075F016A4240AF582E5F03402F583E0FD9B
:10162B00A3E0900436CDF0A3EDF075F016EFA424F3
:10163B000CF582E5F03402F583E0FFA3E09004386B
:10164B00CFF0A3EFF0900333E0FF75F016A4240E58
:10165B00F582E5F03402F583E0FCA3E0FD90043A5B
:10166B00ECF0A3EDF075F016EFA42410F582E5F085
:10167B003402F583E0FFA3E090043CCFF0A3EFF03E
:10168B00900333E0FF75F016A42412F582E5F034D5
:10169B0002F583E0FBA3E090043ECBF0A3EBF075E7
:1016AB00F016EFA42414F582E5F03402F583E0FF85
:1016BB00A3E0900440CFF0A3EFF0900333E0FF756D
:1016CB00F016A42416F582E5F03402F583E0FBA3B3
:1016DB00E0900442CBF0A3EBF075F016EFA42418C6
:1016EB00F582E5F03402F583E0FEA3E0FF900444BD
:1016FB00EEF0A3EFF075F016E9A4241BF582E5F0EC
:10170B003402F583E090044BF01208ACA804A90551
:10171B00AA06AB07900333E075F016A4241AF582E2
:10172B00E5F03402F583E0FFE4FCFDFE120697E4DE
:10173B007BE87A03F9F81207229004471208291262
:10174B005334900450EEF0A3EFF0124BCE900452B2
:10175B001208299004587401F07BFF7A0B7952120E
:10176B0034AE900333E075F016A4240CF582E5F04B
:10177B003402F583E0FEA3E0FFE4FCFD1219047BC9
:10178B00FF7A0B796F1234AE900333E075F016A429
:10179B002416F582E5F03402F583E0FEA3E0FFE4C6
:1017AB00FCFD1219047BFF7A0B79711234AE900495
:1017BB0046E0FFE4FCFDFE1219047BFF7A0B797304
:1017CB001234AE900447E0FCA3E0FDA3E0FEA3E0DF
:1017DB00FF1219047BFF7A0B79821234AE900450FE
:1017EB00E0FEA3E0FFE4FCFD1219047BFF7A0B790A
:1017FB009A1234AE900452E0FCA3E0FDA3E0FEA3EA
:10180B00E0FF1219047B017A047932123E657F7076
:10181B007E647D087C00900447E0F8A3E0F9A3E028
:10182B00FAA3E0FBD31207C27BFF400F7A0B79B10F
:10183B001234AE90046D7401F080477A0B79BD12AF
:10184B0034AEE490046DF08039900333E0FF75F013
:10185B0016A4240CF582E5F03402F583E0FCA3E03A
:10186B004C601F75F016EFA42416F582E5F03402D8
:10187B00F583E0FEA3E04E6009900333E004F00231
:10188B001517900458E070707BFF7A0B79C91234EE
:10189B00AE7BFF7A0B79F01234AE900328E0FEA3F7
:1018AB00E0FFE4FCFD1219047BFF7A0B79FE123486
:1018BB00AE90032AE0FEA3E0FFE4FCFD1219047BCB
:1018CB00FF7A0B79821234AE125334E4FCFD1219F9
:1018DB00047BFF7A0B799A1234AE124BCE12190499
:1018EB007BFF7A0C790C90D002E09003C2F012349B
:0818FB00AE7F907E0112512E18
:0119030022C1
:10527D0090850574FFF090850DF0F090869E747FFB
:06528D00F0E4FF025346AD
:1047A90090046DE0908280603474D0F090828174BE
:1047B900F8F090828474B8F0908285741FF090822A
:1047C9008674B8F0908287741FF090828874B8F06C
:1047D900908289741FF090828A74B8802F74D0F007
:1047E9009082817408F090828474B0F0E49082859C
:1047F900F090828674B0F0E4908287F09082887499
:10480900B0F0E4908289F090828A74B0F0E49082EA
:034819008BF022FF
:10481C00900438E0FEA3E0FFBE0217BF80149004A2
:10482C0042E0B4010DA3E0B4E008900446E0643C1F
:10483C00603ABE0217BFD014900442E0B4010DA33D
:10484C00E0B4E008900446E0643C6020900438E05A
:10485C00B40222A3E0B4D01D900442E0B40216A32B
:10486C00E0B44011900446E06432700990C000E05E
:10487C004403F0800790C000E054FCF090C0017439
:03488C0008F0220F
:104D0700EF604190827F7460F0E4908283F07F05CA
:104D1700FE12512E90827F7470F0908118747FF08C
:104D27007F057E0012512E90811874FFF074F8F001
:104D37007F057E0012512E90811874F9F0908283BE
:0A4D470074FFF022E490827FF02256
:1037D400E4900324F090001D12053E6406703090BE
:1037E400C8607482F090C8617402F090C862740D6D
:1037F400F090C86374F4F090C8647472F090C86573
:1038040074A8F0E490C866F090C8677461F02290E0
:10381400000612065FFDACF0BC021CBD80199000CE
:103824001012065FFDACF0BC010DBDE00A9000145F
:1038340012053E643C605090000612065FFDACF039
:10384400BC021CBDD01990001012065FFDACF0BC88
:10385400010DBDE00A90001412053E643C602890FE
:10386400000612065FFDACF0BC0224BDD02190001E
:103874001012065FFDACF0BC0215BD40129000149E
:1038840012053E643270089003277418F080069085
:1038940003277428F09003267412F090001912057F
:1038A4003E900329F09003287408F074122491FFC9
:1038B400900327E02F2408FF900329E0FE2FF4044F
:1038C400FF900325F07BFF7A0C791B9003C274826E
:1038D400F0A37402F0A3740DF0A3EFF0A37412F03C
:1038E400900327E09003C7F0A37408F0A3EEF0124E
:1038F40034AE90C8607482F090C8617402F090C8CD
:1039040062740DF0900325E090C863F0900326E004
:1039140090C864F0900327E090C865F0900328E015
:0C39240090C866F0900329E090C867F09E
:013930002274
:10516A0090C6097401F0E4908115F07F05FE125192
:0E517A002E908115749FF07F057E0002512E4D
:105293009085A0E020E00E7BFF7A0C79431234AEB8
:0652A300E4900456F02225
:1045C2009085A0E030E01520E10330E20F90045620
:1045D2007401F090B023E04402F0800FE49004569E
:1045E200F090B023E054FDF054FEF0900456E0FF4A
:1045F20090046CE06F60487BFF7A0C79521234AE03
:104602007F01124E5D900456E0601B7BFF7A0C79AD
:104612006D1234AE900459E064017005900469048F
:10462200F0124A2880117BFF7A0C79841234AE1280
:10463200516AE4FF124D07900456E090046CF02298
:1050410090C406E04480F090C425E0FF7BFF30E38C
:105051000A7A0C799A1234AE7F01227A0C79B41251
:0450610034AE7F00EA
:015065002228
:10426D00E4900325F0A3F0A3F0A3F0908590E04433
:10427D0080F054DFF04410F04408F054FDF0440198
:10428D00F07F031250CCE4900326F0900326E0C398
:10429D0094037480948050277F50125066900325AC
:1042AD00EFF030E2059003278003900328E004F03F
:1042BD007F1E7E0012512E900326E004F080CC90DC
:1042CD000327E0C394027480948040037F02229000
:1042DD000328E0C3940274809480401190046DE033
:1042ED0060087BFF7A0C79E280097F01227BFF7ADF
:0842FD000D79081234AE7F00B8
:014305002295
:103A8200E4900324F0900468F0900456E07003027E
:103A92003BC390045BE07003023BC0125041EF70E5
:103AA20003023BBC90045BE0FF7E00640170079060
:103AB200032404F0801CEF64024E70089003247407
:103AC20002F0800EEF64034E700812426D900324E0
:103AD200EFF0900324E06401705D7BFF7A0D79239F
:103AE2001234AE9085907422F0E490C602F090C435
:103AF2001DF090C41EF090C41F74DCF090C80974CD
:103B02001DF090813B74FFF090813CF090859074A1
:103B120022F090C606749FF090C60774F1F090C62A
:103B22000B740FF090C44F74FFF090C45074F0F017
:103B32009004687401F022900324E06402707A7B9E
:103B4200FF7A0D793F1234AE9085907422F0E490A2
:103B5200C602F090C41DF090C41EF090C41F74DC25
:103B6200F090C6097401F090C60674DFF090C607A3
:103B720074F1F090C60B741FF0E4908115F07F058C
:103B8200FE12512E908115749FF07F057E00125116
:103B92002E90C809741DF09085907422F090C60C86
:103BA2007453F090C608747FF090C60974E1F07403
:103BB200C1F09004687402F022E4FF024D07125132
:013BC2006A98
:013BC30022DF
:1041C600E4900324F0900468E0700302426C6401FA
:1041D600704090C436E0900324F0540764077008DA
:1041E6007BFF7A0D795B807090042FE004F07006F7
:1041F60090042EE004F0D390042FE0949690042EC1
:10420600E094004061E4FF124D077BFF7A0D79755B
:104216008046900468E06402704C90C634E09003D7
:1042260024F0540F640F70087BFF7A0D798980287B
:1042360090042FE004F0700690042EE004F0D39072
:10424600042FE0949690042EE094004019E4FF12A7
:104256004D077BFF7A0D79751234AEE4900468F051
:0642660090042EF0A3F00D
:01426C00222F
:0100110022CC
:1026A500E4900324F0A3F0A3F090B024E090032479
:1026B500F020E0030227C27BFF7A0D79A31234AE26
:1026C500E4FF124D07E490812BF090812CF090816E
:1026D5002DF090812EF090812FF0908130F0908137
:1026E50038F090813AF090813BF090813CF09081F8
:1026F5003EF090813FF0908140F0908141F09081D3
:1027050042F0908143F0908144F0908145F09081B2
:1027150046F0908147F0908148F0908149F0908192
:102725004AF090814BF090814CF090814DF0908172
:102735004EF090814FF0908150F09082017480F0BE
:1027450090820574F7F09082067411F090820774F8
:102755002FF09082107411F0908211742FF09082F6
:102765001A7411F090821B742FF09082247411F06A
:10277500908225742FF090824074C0F090824D7441
:1027850084F090824E742FF0908251744DF09082B7
:1027950052740CF090826074C0F090826E74EFF009
:1027A50090827974C0F09082807460F090829B74FE
:1027B500C0F09082D3F0E490855DF080FE90032414
:1027C500E020E103022A337BFF7A0D79DD1234AE76
:1027D500E4FF124D07E490812BF090812CF090815D
:1027E5002DF090812EF090812FF0908130F0908126
:1027F50038F090813AF090813BF090813CF09081E7
:102805003EF090813FF0908140F0908141F09081C1
:1028150042F0908143F0908144F0908145F09081A1
:1028250046F0908147F0908148F0908149F0908181
:102835004AF090814BF090814CF090814DF0908161
:102845004EF090814FF0908150F09082017480F0AD
:1028550090820574F7F09082067411F090820774E7
:102865002FF09082107411F0908211742FF09082E5
:102875001A7411F090821B742FF09082247411F059
:10288500908225742FF090824074C0F090824D7430
:1028950084F090824E742FF0908251744DF09082A6
:1028A50052740CF090826074C0F090826E74EFF0F8
:1028B50090827974C0F09082807460F090829B74ED
:1028C500C0F09082D3F09085A0E0FF20E006900351
:1028D500267401F0900326E06401700AEF30E006EB
:1028E5009003257401F07F647E0012512E9003251C
:1028F500E060D3A3E060CF7BFF7A0E791F1234AE80
:10290500900324E054FD90B024F090812B740FF0D7
:1029150090812C7477F0E490812DF090812E74FFD6
:10292500F090812FF0908130F0908138F0908139CE
:1029350074F1F090813A74FFF090813B7480F090CF
:10294500813C74B4F090813E74FFF090813FF0902B
:10295500814074FCF0908141F090814274FFF090C9
:1029650081437480F0E4908144F090814574C0F017
:10297500908146749FF0908147741FF09081487450
:10298500FFF0E4908149F090814A74F8F090814B12
:102995007478F0E490814CF090814DF090814EF088
:1029A50090814F74FFF0E4908150F090820174148F
:1029B500F090820574F7F09082067401F09082071A
:1029C5007420F09082107411F0908211742FF090A1
:1029D500821A7401F090821B7420F0908224741185
:1029E500F0908225742FF090824074C0F090824D53
:1029F5007410F090824E742FF0908251744DF090C7
:102A05008252740CF090826074C0F090826E74EF04
:102A1500F0E4908279F090828074D0F090829B747B
:0E2A250038F09082D374C0F090046B7401F00E
:012A33002280
:104E1C00E4908279F09082E47410F090B000740900
:104E2C00F090C906740CF090C81174D9F0E490C8D5
:104E3C000DF090865CF07420F0E490C906F090C9F7
:104E4C00077410F090C0017408F090C81174DAF077
:014E5C002233
:0B2A3400900324EBF0A3EAF0A3E9F00C
:102A3F00E4A3F0A3F090045DE06401700C90046DCA
:102A4F00E0700690045DF0FF22900324E0FBA3E00A
:102A5F00FAA3E0F990001A12053EFF64016005EF3A
:102A6F006402705E90D00B7401F0E490D00CF09083
:102A7F00D04CF090D04D7480F090000612065F702D
:102A8F0004E5F064056003022B94900324E0FBA39C
:102A9F00E0FAA3E0F990001012065F64D07004E52D
:102AAF00F064026003022B9490001412053E641E22
:102ABF006003022B9490D04CF090D04D7460F002D4
:102ACF002B94900324E0FBA3E0FAA3E0F990001A03
:102ADF0012053E64036003022B8B90000612065F03
:102AEF00AEF07802CEC313CE13D8F9FDAC06ECFFCF
:102AFF0090D00BF0AE0590D00CEEF090D04CEFF0E4
:102B0F0090D04DEEF0900324E0FBA3E0FAA3E0F9A0
:102B1F0090000612065FB40020E5F0B40F1B900082
:102B2F001012065FFFAEF0BE080FBF700C90D04CB6
:102B3F007403F090D04D7460F07BFF7A0E792C9077
:102B4F00D00BE09003C2F01234AE7BFF7A0E793FC8
:102B5F0090D00CE09003C2F01234AE7BFF7A0E7966
:102B6F005290D04CE09003C2F01234AE7BFF7A0E3D
:102B7F00796590D04DE09003C2F080067BFF7A0E0E
:102B8F0079781234AE90D01E7412F090D023745016
:102B9F00F090D021744AF0900324E0FBA3E0FAA355
:102BAF00E0F990001C12053E640190D0247005746A
:102BBF00F0F080037470F090D0257480F090D02ADC
:102BCF007401F090D02C04F090D0437404F090D0A6
:102BDF00447408F090D0457410F090D0477408F00A
:102BEF0090D048740CF090D0497410F090D04A7483
:102BFF0020F09000151207F9E47B407A9CF9F8D386
:102C0F001207C24032900324E0FBA3E0FAA3E0F9DD
:102C1F009000151207F9E47B107A27F9F8C3120711
:102C2F00C2501490D02D743FF090D0317401F090B9
:102C3F00D0267416F0801290D02D7480F090D03181
:102C4F007410F090D026742AF090811D741FF0E458
:102C5F0090811EF07F0AFE12512E90811E74E0F0BB
:102C6F0090811D74FFF0E4900327F0900327E0C3D9
:102C7F0094C87480948050467F0A7E0012512E9023
:102C8F00D097E0900328F05430601390B022E044C6
:102C9F0004F07BFF7A0E79A81234AE7F012290B038
:102CAF0022E054FBF0900327E064C370097BFF7AA6
:102CBF000E79D51234AE900327E004F080AD7F007B
:012CCF0022E2
:102CD000900324EBF0A3EAF0A3E9F0908784745DFD
:102CE000F090878574C0F0900324E0FBA3E0FAA382
:102CF000E0F99000151207F9E47B02FAF9F81207DF
:102D00002278101207D3EF4410908787F0900324A5
:102D1000E0FBA3E0FAA3E0F99000151207F9E47BC9
:102D200002FAF9F812072278081207D3908788EF81
:102D3000F0900324E0FBA3E0FAA3E0F99000151261
:102D400007F9E47B02FAF9F8120722908789EFF07D
:102D500090829B7438F090829C14F0900324E0FBE6
:102D6000A3E0FAA3E0F99000151207F9E47B407A9A
:102D70009CF9F8D31207C24026900324E0FBA3E09D
:102D8000FAA3E0F99000151207F9E47B107A27F90D
:102D9000F8C31207C2500890829D7412F08006900A
:102DA000829D7411F09082A07402F0900324E0FBE5
:102DB000A3E0FAA3E0F99000151207F97BA07A8648
:102DC00079017800D31207C24027900324E0FBA3C7
:102DD000E0FAA3E0F99000151207F9E47B107A27D6
:102DE000F9F8C31207C250099082A2740BF0022EA8
:102DF000C2900324E0FBA3E0FAA3E0F990001512CF
:102E000007F97B307AE679027800D31207C24028AE
:102E1000900324E0FBA3E0FAA3E0F9900015120769
:102E2000F97BA07A8679017800C31207C250099015
:102E300082A2740AF0022EC2900324E0FBA3E0FAFF
:102E4000A3E0F99000151207F97B307A57790578DD
:102E500000D31207C24027900324E0FBA3E0FAA3AB
:102E6000E0F99000151207F97B307AE679027800D4
:102E7000C31207C250089082A27408F080449003E5
:102E800024E0FBA3E0FAA3E0F99000151207F97B18
:102E9000C07A2779097800D31207C240259003240D
:102EA000E0FBA3E0FAA3E0F99000151207F97B30EC
:102EB0007A5779057800C31207C250069082A2742F
:102EC00038F09082A67480F09087487474F0900374
:102ED00024E0FBA3E0FAA3E0F99000151207F97BC8
:102EE000C07A2779097800D31207C24027900324BB
:102EF000E0FBA3E0FAA3E0F99000151207F97B804C
:102F00007A1A79067800C31207C250089087937422
:102F1000C0F080069087937440F090870C74E6F0C0
:102F200074EEF09081257417F0741FF0908783740D
:102F300050F074D0F09082E57420F09082E6F07F3B
:102F40000A7E0012512E90810C74EAF074EEF0901B
:102F5000878AE030E1097BFF7A0F79020234AE7F85
:082F6000147E0012512E80E7DF
:10521700900456E0640190B0237006E04402F080E9
:0B52270007E054FDF054FEF00226A545
:104A8000E4FC90045FF0A3F090D082E0FE90D0832D
:104A9000E02400FDEC3EFC90D086E0FE90D087E064
:104AA0007A002400FFEA3EFEED2FFFEC3E90045F0B
:104AB000F0A3EFF07BFF7A0F791C90045FE0900386
:104AC000C2F01234AE7BFF7A0F793190045FA3E01D
:074AD0009003C2F00234AEB6
:104DDA00E4FCFA90D082E0FE90D083E02400FDEC5F
:104DEA003EFC90D086E0FE90D087E02400FFEA3EA9
:104DFA00FEED2FFBEC3EFE90045FE06E7003A3E035
:104E0A006B600C7BFF7A0F79351234AE7F01227FFB
:014E1A000097
:014E1B002274
:104E9800E4FE90044CE0640290855070057422F0A2
:104EA80080037420F0908558E0FF908559E0FD7CE0
:104EB80000EF700FED700C7BFF7A0F794E1234AE55
:054EC8007F01227F00C4
:014ECD0022C2
:104FC50090044FE0FF64036005EF640E70167BFFED
:104FD5007A0F796E1234AE9085AE7408F09085AF75
:0E4FE50074E0F022E49085AEF09085AFF022EB
:10407700E4900324F0A3F0A3F0F9A3C9F0A374D04C
:10408700F0A3E9F0900430E07004A3E064327079A3
:10409700900430F0A3F07BFF7A0F79751234AEE409
:1040A700900324F0A3F0900324E0FEA3E0FFC3EE07
:1040B70094015055EF540F70097BFF7A0F799412D2
:1040C70034AE7BFF7A0F79971234AE900327A3E0C3
:1040D700FAA3E0F9900324E0FEA3E0FFE92FF9EA51
:1040E7003EFEAF011253C6900326EFF07BFF7A0F17
:1040F70079319003C2F01234AE900325E004F070DA
:10410700A5900324E004F0809D900431E004F07052
:0741170006900430E004F003
:01411E00227E
:103BC4007BFF7A0F799990D082E09003C2F090D075
:103BD40083E09003C3F01234AE7BFF7A0F79B19087
:103BE400D086E09003C2F090D087E09003C3F01237
:103BF40034AE7BFF7A0F79C990D098E09003C2F07D
:103C040090D099E09003C3F090D09AE09003C4F070
:103C140090D09BE09003C5F090D09CE09003C6F058
:103C240090D09DE09003C7F090D09EE09003C8F040
:103C340090D09FE09003C9F01234AE7BFF7A0F79E5
:103C4400FB90D0A0E09003C2F090D0A1E09003C319
:103C5400F090D0A2E09003C4F090D0A3E09003C50C
:103C6400F090D0A4E09003C6F090D0A5E09003C7F4
:103C7400F090D0A6E09003C8F090D0A7E09003C9DC
:103C8400F01234AE7BFF7A10792D90D0BCE0900313
:103C9400C2F01234AE7BFF7A10794290D0C6E09025
:063CA40003C2F00234AE81
:10532100E4908664E0FF7BFF7A1079579003C2F026
:035331000234AE95
:1052F9009085057479F090850D74FFF07479F07FCD
:045309000102534604
:0D53970090869E7477F090869F74FFF02240
:0B53A40090869E74FFF090869FF02220
:103CAA00E4FF900201E0FD7C00700690044EF08073
:103CBA000DED64014C700790044E04F04FFF900222
:103CCA0002E0FD7C00700A90044C04F0EF54FD8081
:103CDA000DED64014C700C90044C7402F04F54FBCF
:103CEA00FF8014900202E06402700C90044C74038A
:103CFA00F0EF54FD4404FF900203E0FD7C006401F0
:103D0A00700A90044D04F0EF44108038ED64024CC0
:103D1A00700E90044D7402F0EF54EF4420FF802798
:103D2A00900203E0FD7C006403700E90044D74035E
:103D3A00F0EF44024402FF800EED4C700A90044DED
:103D4A00F0EF54EF54DFFF900204E0FD7C007006B0
:103D5A00EF543FFF8022ED64014C7008EF547F441A
:103D6A0040FF8014900204E064027008EF54BF44DC
:0D3D7A0080FF8004EF44C0FF90B025EFF003
:013D87002219
:102F6800E4900324F0A3F0A3F0A3F0A3F090B0251D
:102F7800E0FF900324F0900463E0FEEF6E60109091
:102F88000324E0900463F09003287401F08005E4C2
:102F9800900328F0900324E030E01490044E74016C
:102FA800F0900328E0601C7BFF7A10796A8011E4B6
:102FB80090044EF0900328E060097BFF7A10797E38
:102FC8001234AE900324E0FFC3135403A3F070132C
:102FD80090044C04F0900328E060417BFF7A10795C
:102FE800928036900325E06401701490044C7402BA
:102FF800F0900328E060257BFF7A1079AB801A9067
:103008000325E06402701590044C7403F0900328C3
:10301800E060097BFF7A1079C41234AE900324E093
:10302800FFC45403900326F0701290044DF09003EF
:1030380028E0605C7BFF7A1079EC8051900326E0F1
:103048006401701390044D04F0900328E060417B04
:10305800FF7A1079FD8036900326E06402701490A0
:10306800044D7402F0900328E060257BFF7A117903
:103078000E801A900326E06403701590044D7403C3
:10308800F0900328E060097BFF7A11791F1234AEB3
:10309800900324E0FF54C0601590045B7403F0EFC4
:1030A800C413135403900327F06008E08001E490F0
:1030B800045BF090045BE0700E900328E0604B7BAB
:1030C800FF7A117930804090045BE06401700E90C3
:1030D8000328E060357BFF7A117940802A90045BF1
:1030E800E06402700E900328E0601F7BFF7A11797C
:1030F80052801490045BE06403700F900328E06032
:10310800097BFF7A1179641234AE900324E030E32E
:103118001490045C7401F0900328E0601C7BFF7A33
:1031280011798C8011E490045CF0900328E0600928
:093138007BFF7A11799B1234AE81
:01314100226B
:10530D0090B025E0FF900463E0FEEF6E60037F0137
:03531D00227F00EC
:01532000226A
:1046BE00E4900432F0A3F090043CF0A3F0900434A4
:1046CE00F0A3F090043EF0A3F0900436F0A3F09027
:1046DE000440F0A3F0900438F0A3F0900442F0A34D
:1046EE00F090043AF0A3F0900444F0A3F0A3F0A3EA
:1046FE0012083500000000E490044BF0A3F0A3F084
:10470E0090044FF0A3F0A3F0A312083500000000B0
:10471E0090045212083500000000E4900457F0A3F4
:08472E00F0A3F0A3F0A3F022B8
:0F5388001253CD1251C212439B1252F9023CAA8A
:103D880090046BE06077E490046FF0900469F09021
:103D9800046FF01253A41246BE122F68E4FF124DAE
:103DA80007124D9712411F124E1C123BC41211AB41
:103DB800900458E060477B017A047932122CD07B5A
:103DC800017A047932122A34EF6401702D1247A95E
:103DD80012481C124FC5125397E490046BF09004DC
:103DE8006904F0900459F0124A8090046F7401F04D
:103DF80090046DE090045DF080031240771245C294
:103E0800900469E06026900456E06020E49004691C
:103E1800F07F01124D077B017A0479321237D412F0
:103E2800510E7FF47E0112512E123A821241C612AF
:103E3800521790046FE06012124DDAEF7006124EBE
:103E480098EF600690046B7401F012530DEF600652
:0D3E580090046B7401F07F0A7E0002512E71
:10001600020258E86480F8E933E83360110460F0BE
:10002600ED33EC337009E8FCE9FDEAFEEBFF220450
:1000360060DED3EB9FEA9EE99DE8C2E78CF0C2F74B
:1000460095F0400CE8CCF8E9CDF9EACEFAEBCFFB17
:1000560012022385D0F05804700320D5B3E804704B
:10006600075002B2D502026292D5EC0460F7E4CCE6
:10007600C0E0C398F8603B94186008400DD0E0FBE0
:1000860002023AE4FBFAC9FC8028E830E406E4C937
:10009600FBE4CAFCE830E305E4C9CACBFCE8540734
:1000A6006010F8C3E913F9EA13FAEB13FBEC13FC3F
:1000B600D8F130F52FC3E49CFCEF9BFFEE9AFEEDE2
:1000C60099FDD0E0FBEF4E4D4C701222DB0302028D
:1000D6005FEC2CFCEF33FFEE33FEED33FDED30E746
:1000E600EB02023AEF2BFFEE3AFEED39FDD0E0FBD4
:1000F60050130BBB0003020262ED13FDEE13FEEF7D
:0801060013FFEC13FC02023AA6
:10010E00020262EC5D046005E859047003020258B5
:10011E00120223580460F6EC4860F2EC7004FDFE07
:10012E00FF22C860DB2481C85009C39860025006C4
:10013E0002025F9850CAF582E9294B4A7005AB82DC
:10014E0002024E75F0007C1A7880C3EF9BEE9AED9A
:10015E0099400DC3EF9BFFEE9AFEED99FDE842F03C
:10016E00DC23ACF0D0E0FFD0E0FED0E0FDAB82208F
:10017E00E7101BEB60BAEC2CFCEF33FFEE33FEED19
:10018E0033FD02023AE803F830E705C0F075F000DF
:10019E00EF2FFFEE33FEED33FD40B830E7C280AAFD
:1001AE0075F020800E75F010800575F0087D007ECC
:1001BE00007F003392D530D5031207B4EC334010D4
:1001CE00EF33FFEE33FEED33FDEC33FCD5F0ED22D5
:0E01DE00E5F0247EA2D513CC92E7CDCEFF2211
:1001EC00EDD2E7CD33EC3392D524814006E4FFFE0B
:1001FC00FDFC22FCE4CFCECDCC24E0501174FF806A
:10020C00EDC3CC13CCCD13CDCE13CECF13CF047006
:07021C00F030D5DE0207B44B
:101DE300E50D24FFF582E43403F583E0050D22902D
:101DF30003FC3010039003FFE475F0011208660240
:101E030005252009E97F2ED2098018EF540F24906D
:101E1300D43440D4FF300D0BEF24BFB41A00500369
:101E23002461FFE50E6002150E0511E51170020530
:101E33001030100E9003FCE475F001120866EF02F7
:101E4300056B02501A7403D2108003E4C210F50D1F
:101E53009003FC12087DE4F50EF510F511E50E6014
:101E6300077F20121E2680F5750FFFC20AC209C222
:101E73000BC20CC20EC20FC211121DF2FF700D3045
:101E830010057F00121E37AF11AE1022B4255FC2BA
:101E9300D5C20D121DF2FF24D0B40A00501A75F0FA
:101EA3000A780E30D50508B6FF0106C6A426F6202B
:101EB300D5047002D20C80D924CFB41A00EF500499
:101EC300C2E5D20D022129D20A80C6D20980C0D22E
:101ED3000B80BCD2D580BAD20E80B47F20121E26CE
:101EE300200B077401B50E0040F1121DE3FF121E13
:101EF30026021E60D211D20F8095121DE3FB121D24
:101F0300E3FA121DE3F94A4B700679277A227BFF25
:101F1300200B2EE50E602A7E008E8275830012054B
:101F23003E60060EEE650F70F0C2D5EBC0E0EAC06E
:101F3300E0E9C0E0EE12218AD0E0F9D0E0FAD0E087
:101F4300FB120525FF60AAEBC0E0EAC0E0E9C0E0B0
:101F5300121E26D0E02401F9D0E03400FAD0E0FBD1
:101F6300E50F0460DCD50FD98087D20B80A2122144
:101F73006C60F7E50F70010412026DA90F600DE5A7
:101F83000F600914F50F122214EF60F3EA30E70231
:101F9300F404C3995079EAF4250F0430E701E4040B
:101FA300F50F800D12216C60C1EA050F250F120297
:101FB3006DEA90042BF030E701E4250F04D50F04FC
:101FC300200E011412218AE4C0E012221490042B83
:101FD300E0601320E70714F0121E0E802204F0D0F5
:101FE300E014C0E07F00121E0EE50F6007121E050D
:101FF300150F800B300E03121E05D0E0021E60D0B9
:10200300E00480C412216C609EE50F0412026D90FF
:10201300042BEAF0E50F200E0260010424041221D0
:012023008A32
:1020240074FF04C0E0122214121E0EE50F200E02EB
:102034006003121E05D0E0B50FE87F45121E18900C
:10204400042BE07F2B30E7047F2DF404C0E0121E44
:1020540026D0E075F00A84C0F0121E0FD0E0121EE4
:102064000F021E60791080027908C20FC211800825
:10207400D2D5790A8004790AC2D5E50F047002F535
:102084000FE4FAFDFEFF121DE3FC7B08200A131285
:102094001DE3FD7B1030090A121DE3FE121DE3FF50
:1020A4007B20EC3382D592D55013C3E43009069FCC
:1020B400FFE49EFEE4200A039DFDE49CFCE4CBF8CF
:1020C400C20AEC700CCFCECDCCE824F8F870F380C3
:1020D40017C3EF33FFEE33FEED33FDEC33FCEB338C
:1020E400FB994002FB0FD8E9EB300A05F8D0E0C4B5
:1020F40048B20AC0E00AEC4D4E4F78207B0070C213
:10210400EAB50F0040BCC0E012218CD0F0D0E02032
:102114000A04C4C0E0C4B20AC0F0121E0FD0F0D545
:10212400F0EB021E601208861EFD532068581ECE76
:102134004C1ECA42206C4F2074442074491EE34351
:10214400207A551FA7462007451F71472247501E76
:10215400D22D1ED62E1EF92B1EDA231EF720223076
:102164002A1E924800001EF1E50FB4FF03750F0606
:10217400121DE3FC121DE3FD121DE3FE121DE3FF1D
:102184009004240202AA790AA2D5200C14300E0964
:10219400B910020404B9080104A2D5200F025001A9
:1021A40004200B68920BB50E005034C0E07F203041
:1021B4000C197F30A20B720F720E500F1221E3C262
:1021C4000BC20FC20EC2117F30800F300E03E9C064
:1021D400E0121E26300E03D0E0F9D0E0B50ECC306C
:1021E4000E177F30B9100C121E267F58300D077F52
:1021F400788003B90803121E26300B057F2D021EBA
:10220400267F202011F87F2B200FF322920B80CF02
:102214007F00B40700500B2424F582E43404F583D2
:10222400E0FF22286E756C6C2900D20A121DE3307F
:102234000AF8C20A780E30D50108F6021E922D5013
:10224400434958121DE32403B405004001E49022DD
:102254004293121E17743A121E17D20C750E040202
:022264002068F0
:10022300E9D2E7C933E833F892D5EDD2E7CD33EC21
:0702330033FC5002B2D5229A
:10023A00EC30E7100FBF000C0EBE00080DBD000425
:10024A000BEB6014A2D5EB13FCED92E7FD2274FFD1
:10025A00FCFDFEFF22E480F8A2D574FF13FC7D802A
:03026A00E480EF3E
:10026D00F920E73624F950037907E4F42402FBE57D
:10027D0082158270021583DBF6E024FB501BE960CA
:10028D0014E4F0E582158270021583E004F0B40ADF
:0D029D0008E4F0D9EE7401F00A22C2D52267
:1002AA00ED33EC3392D5FA602AB4FF33EDC2E77B23
:1002BA00FF60067A0279CFE4227A0279D820D5043F
:1002CA007A0279D3224E614E002B494E46002D49BF
:1002DA004E4600E47A08F0A3DAFC7B00740722C0D9
:1002EA0083C082ECC0E0EDC0E0EEC0E0EFC0E0EA1F
:1002FA0075F010A4CAABF075F04DA42BFBE435F0F1
:10030A00FCEA2410FAEB34C5FBEC34D9FCEDC2E765
:10031A00FF75F056A4F42411C5F0F434C58FF0A487
:10032A002AE5F03BE43CF020E7141204E5D0E0FFB4
:10033A00D0E0FED0E0FDD0E0FC1201118014F404FC
:10034A001204E5D0E0FFD0E0FED0E0FDD0E0FC12E0
:10035A0003AFD082D083E0FAEDD2E7CD33EC332479
:10036A0082FBE4C3CF33CFCE33CECD33CD33DBF3F1
:10037A007B0775F00A846004F0A31B0AE5F0F0A37A
:10038A008FF0740AA4FFACF08EF0740AA42CFEACB1
:10039A00F050010C8DF0740AA42CFDE435F0F0A3A2
:0503AA00DBDE740722F8
:1003AF00EC4D6011E8497017ED33EC3304600DE448
:1003BF00FCFFFEFD22E933E8330470F80202581205
:1003CF00022358046009E4CC248150062850090206
:1003DF00026228400302025FC0E0EB4A7044B9801A
:1003EF0006D0E0FB02024EEF4E701CBD8008EBFF03
:1003FF00EAFEE9FD80EBE98DF0A4FEE5F00204983A
:10040F00E9CDF9EAFEEBFFEF89F0A4FCE5F0CE8928
:10041F00F0A42EFFE435F0CD89F0A42DFEE435F0E5
:10042F008067EF4E7005BD80D780C3EF8BF0A4AC13
:10043F00F0EE8BF0A42CFCE435F0F8EF8AF0A42C4E
:10044F00E5F038FCE433CB8DF0A42CFCE5F03BF861
:10045F00EE8AF0A42CFCE5F038F8E433CF89F0A451
:10046F002CFCE5F038CF3400CE89F0A42FFFE5F057
:10047F003EFEE433C98DF0A42EFEE5F039CD8AF0AF
:10048F00A42FFFE5F03EFEE43DFD33D0E0FB500727
:10049F000BBB000F020262EC2CFCEF33FFEE33FEBE
:0604AF00ED33FD02023AEC
:1004B5003F8000004120000042C80000447A00004F
:1004C500461C400047C35000497424004B189680D1
:1004D5004CBEBC205A0E1BCA6753C21C749DC5AEC8
:1004E500FB60065407601C2323120513EB54386088
:1004F500091204FF12050E1203AFECF8EDF9EEFA3E
:10050500EFCB22EB12050E80F1543803241C900426
:10051500B5FE93FC0EEE93FD0EEE930ECE93FF22E9
:10443600025188E493A3F8E493A34003F68001F2C3
:1044460008DFF48029E493A3F85407240CC8C33387
:10445600C4540F4420C8834004F456800146F6DF56
:10446600E4800B010204081020408090364BE47E65
:10447600019360BCA3FF543F30E509541FFEE4934B
:10448600A360010ECF54C025E060A840B8E493A312
:10449600FAE493A3F8E493A3C8C582C8CAC583CA3D
:1044A600F0A3C8C582C8CAC583CADFE9DEE780BEF5
:0137D30000F5
:10052500BB010689828A83E0225002E722BBFE02D4
:09053500E32289828A83E4932207
:10053E00BB010CE58229F582E5833AF583E0225072
:10054E0006E92582F8E622BBFE06E92582F8E222BC
:0D055E00E58229F582E5833AF583E49322D6
:10056B00BB010689828A83F0225002F722BBFE016F
:02057B00F32269
:10057D00BC000BBE0029EF8DF084FFADF022E4CC62
:10058D00F875F008EF2FFFEE33FEEC33FCEE9DEC2B
:10059D00984005FCEE9DFE0FD5F0E9E4CEFD22ED71
:1005AD00F8F5F0EE8420D21CFEADF075F008EF2FBB
:1005BD00FFED33FD4007985006D5F0F222C398FDAC
:0505CD000FD5F0EA2249
:1005D200C2D5EC30E709B2D5E4C39DFDE49CFCEE44
:1005E20030E715B2D5E4C39FFFE49EFE12057DC33A
:1005F200E49DFDE49CFC800312057D30D507C3E435
:060602009FFFE49EFE22B2
:10060800C5F0F8A3E028F0C5F0F8E582158270027D
:060618001583E038F0221A
:10061E00A3F8E0C5F025F0F0E5821582700215838F
:06062E00E0C838F0E822EC
:10063400BB010A89828A83E0F5F0A3E02250068791
:10064400F009E71922BBFE07E3F5F009E319228953
:0B065400828A83E493F5F07401932286
:10065F00BB0110E58229F582E5833AF583E0F5F0D9
:10066F00A3E0225009E92582F886F008E622BBFEB6
:10067F000AE92582F8E2F5F008E222E5832AF583FC
:08068F00E993F5F0A3E99322C1
:10069700E88FF0A4CC8BF0A42CFCE98EF0A42CFC02
:1006A7008AF0EDA42CFCEA8EF0A4CDA8F08BF0A480
:1006B7002DCC3825F0FDE98FF0A42CCD35F0FCEBDF
:1006C7008EF0A4FEA9F0EB8FF0A4CFC5F02ECD39A4
:0F06D700FEE43CFCEAA42DCE35F0FDE43CFC2211
:1006E60075F008758200EF2FFFEE33FECD33CDCCCB
:1006F60033CCC58233C5829BED9AEC99E58298404E
:100706000CF582EE9BFEED9AFDEC99FC0FD5F0D62A
:10071600E4CEFBE4CDFAE4CCF9A88222B800C1B954
:100726000059BA002DEC8BF084CFCECDFCE5F0CB92
:10073600F97818EF2FFFEE33FEED33FDEC33FCEBCB
:1007460033FB10D703994004EB99FB0FD8E5E4F986
:10075600FA227818EF2FFFEE33FEED33FDEC33FC73
:10076600C933C910D7059BE99A4007EC9BFCE99A67
:10077600F90FD8E0E4C9FAE4CCFB2275F010EF2FAC
:10078600FFEE33FEED33FDCC33CCC833C810D707AC
:100796009BEC9AE899400AED9BFDEC9AFCE899F8E7
:0E07A6000FD5F0DAE4CDFBE4CCFAE4C8F9227A
:0E07B400C3E49FFFE49EFEE49DFDE49CFC2256
:1007C200EB9FF5F0EA9E42F0E99D42F0E89C45F08D
:0107D2002204
:1007D300E8600FECC313FCED13FDEE13FEEF13FF04
:0307E300D8F12228
:1007E600E8600FEFC333FFEE33FEED33FDEC33FC71
:0307F600D8F12215
:1007F900BB010DE58229F582E5833AF583020911EA
:100809005007E92582F8020905BBFE07E92582F8A8
:1008190002091DE58229F582E5833AF58302092952
:0C082900ECF0A3EDF0A3EEF0A3EFF02242
:10083500A8828583F0D083D08212084C12084C120E
:10084500084C12084CE473E493A3C583C5F0C58333
:10085500C8C582C8F0A3C583C5F0C583C8C582C80D
:010865002270
:10086600F8E0FBA3A3E0F925F0F0E582158270021B
:070876001583E0FA38F022BF
:09087D00EBF0A3EAF0A3E9F0227C
:10088600D083D082F8E4937012740193700DA3A301
:1008960093F8740193F5828883E473740293686015
:0608A600EFA3A3A380DF15
:1008AC00EC8EF0A4CCC5F0CCCDF8EFA4CEC5F02DD9
:1008BC00FDE43CFCE8A42EC8C5F03DFDE43CFCEF97
:0D08CC00A4FFE5F028FEE43DFDE43CFC2225
:10501A00EFB40A07740D125025740A309811A89932
:10502A00B8130CC2983098FDA899C298B811F630F6
:07503A0099FDC299F59922CE
:1008D900EF4E6012EF60010EEDBB010B89828A8336
:1008E900F0A3DFFCDEFA2289F05007F709DFFCA943
:0C08F900F022BBFEFCF309DFFCA9F0229A
:0C090500E6FC08E6FD08E6FE08E6FF221E
:0C091100E0FCA3E0FDA3E0FEA3E0FF2259
:0C091D00E2FC08E2FD08E2FE08E2FF2216
:10092900E493FC740193FD740293FE740393FF2214
:00000001FF
